:020000020000FC
:0200000062C0DC
:1000060000C0E0903F000F931F93BB2700910804A8
:10001600067006950093163E1091173E0127013093
:1000260059F00230C1F000910904009309041F91B0
:100036000F91E0923F0018950091163E1091173EE1
:10004600202F217021F4212F2270A9F415C0212F11
:10005600227081F423C00091163E1091173E202F86
:10006600227021F4212F217029F418C0212F21702C
:1000760011F402C001C012C00091183E0F5F009338
:10008600183E0091163E0093173E00910904009316
:1000960009041F910F91E0923F0018950091183EB8
:1000A60001500093183E0091163E0093173E0091B2
:1000B6000904009309041F910F91E0923F001895DF
:1000C60042D047D01EE452D0ACD000E0602E00E013
:1000D600D9D0E4E4F1E0E2D0C8EED3E0EAD05FD0D4
:1000E600BB27B093183EB093193EB0931A3EB09317
:1000F6001B3E09E0009311040093120400910804CA
:10010600067006950093173E789423D01EE42ED0F1
:10011600E9D00091183E06951091193EE8D001E00D
:10012600602E00E0AFD0192F62D0182F60D0172FA5
:100136005ED010E25CD0CAE0D0E0BBD0E9CF486523
:100146006C6C6F21200008ED04BF01E00093610094
:10015600089500E50093160803E00093130808E0ED
:100166000093140801E0009315080895012F0093E9
:10017600170819D009D00895012F0093180813D035
:1001860003D00AE0A7D008953F93332733953E3135
:1001960021F00091150804FDF9CF3F91089503E081
:1001A6000093140808950091150806FFFCCF0895E2
:1001B6000091150807FFFCCF08951093143E107F99
:1001C6001860DADF58D01C60D7DF55D01B7FD4DF2C
:1001D60052D01091143E1295107F1860CDDF4BD08F
:1001E6001C60CADF48D01B7FC7DF45D00895109337
:1001F600143E107F1960C0DF3ED01D60BDDF3BD0CE
:100206001B7FBADF38D01091143E1295107F19600B
:10021600B3DF31D01D60B0DF2ED01B7FADDF2BD01A
:10022600089525D01CE3A8DF26D018E3A5DF1FD04C
:100236001CE3A2DF20D018E39FDF19D01CE39CDF6C
:100246001AD018E399DF13D01CE296DF14D018E217
:1002560093DF0DD018E2B1DF0ED01CE0AEDF0BD07D
:1002660016E0ABDF08D011E0A8DF05D00895C2E3A1
:10027600D0E01FD0089504E12DD00895C0EDD7E059
:1002860018D00895003029F000EC600E162D95DF89
:10029600089500E8600E162D90DF08951591103030
:1002A60011F0A5DFFBCF089500E0602E00E0EADF45
:1002B600089507D02197E9F7089503D00A95E9F73D
:1002C6000895CF93DF93CFEBD9E02197F1F7DF9134
:1002D600CF91089503D00A95E9F70895000000002C
:1002E6000000089511E069DF04E1F4DF089590E06D
:1002F60080E070E060E320E088940436120754F44E
:1003060020E088940A3012075CF4702F960F860F4F
:10031600760F0895332788940456130B9395EBCFE5
:10032600332788940A50130B8395E5CF00FF01000D
:0C033600010000FFFF0000010001FF00BB
:00000001FF
